{
  "contractName": "AccessWallet",
  "abi": [
    {
      "inputs": [
        {
          "internalType": "contract IWalletA",
          "name": "wallet_",
          "type": "address"
        },
        {
          "internalType": "address[]",
          "name": "_owners",
          "type": "address[]"
        }
      ],
      "stateMutability": "nonpayable",
      "type": "constructor"
    },
    {
      "anonymous": false,
      "inputs": [
        {
          "indexed": true,
          "internalType": "address",
          "name": "newAdmin",
          "type": "address"
        }
      ],
      "name": "AdminTransfer",
      "type": "event"
    },
    {
      "anonymous": false,
      "inputs": [
        {
          "indexed": true,
          "internalType": "address",
          "name": "sender",
          "type": "address"
        },
        {
          "indexed": true,
          "internalType": "uint256",
          "name": "transactionId",
          "type": "uint256"
        }
      ],
      "name": "Confirmation",
      "type": "event"
    },
    {
      "anonymous": false,
      "inputs": [
        {
          "indexed": true,
          "internalType": "address",
          "name": "sender",
          "type": "address"
        },
        {
          "indexed": false,
          "internalType": "uint256",
          "name": "value",
          "type": "uint256"
        }
      ],
      "name": "Deposit",
      "type": "event"
    },
    {
      "anonymous": false,
      "inputs": [
        {
          "indexed": true,
          "internalType": "uint256",
          "name": "transactionId",
          "type": "uint256"
        }
      ],
      "name": "Execution",
      "type": "event"
    },
    {
      "anonymous": false,
      "inputs": [
        {
          "indexed": true,
          "internalType": "uint256",
          "name": "transactionId",
          "type": "uint256"
        }
      ],
      "name": "ExecutionFailure",
      "type": "event"
    },
    {
      "anonymous": false,
      "inputs": [
        {
          "indexed": true,
          "internalType": "address",
          "name": "owner",
          "type": "address"
        }
      ],
      "name": "OwnerAddition",
      "type": "event"
    },
    {
      "anonymous": false,
      "inputs": [
        {
          "indexed": true,
          "internalType": "address",
          "name": "owner",
          "type": "address"
        }
      ],
      "name": "OwnerRemoval",
      "type": "event"
    },
    {
      "anonymous": false,
      "inputs": [
        {
          "indexed": false,
          "internalType": "uint256",
          "name": "quorum",
          "type": "uint256"
        }
      ],
      "name": "QuorumUpdate",
      "type": "event"
    },
    {
      "anonymous": false,
      "inputs": [
        {
          "indexed": true,
          "internalType": "address",
          "name": "sender",
          "type": "address"
        },
        {
          "indexed": true,
          "internalType": "uint256",
          "name": "transactionId",
          "type": "uint256"
        }
      ],
      "name": "Revocation",
      "type": "event"
    },
    {
      "anonymous": false,
      "inputs": [
        {
          "indexed": true,
          "internalType": "uint256",
          "name": "transactionId",
          "type": "uint256"
        }
      ],
      "name": "Submission",
      "type": "event"
    },
    {
      "inputs": [
        {
          "internalType": "address",
          "name": "owner",
          "type": "address"
        }
      ],
      "name": "addOwner",
      "outputs": [],
      "stateMutability": "nonpayable",
      "type": "function"
    },
    {
      "inputs": [],
      "name": "admin",
      "outputs": [
        {
          "internalType": "address",
          "name": "",
          "type": "address"
        }
      ],
      "stateMutability": "view",
      "type": "function"
    },
    {
      "inputs": [
        {
          "internalType": "address",
          "name": "",
          "type": "address"
        }
      ],
      "name": "isOwner",
      "outputs": [
        {
          "internalType": "bool",
          "name": "",
          "type": "bool"
        }
      ],
      "stateMutability": "view",
      "type": "function"
    },
    {
      "inputs": [
        {
          "internalType": "uint256",
          "name": "",
          "type": "uint256"
        }
      ],
      "name": "owners",
      "outputs": [
        {
          "internalType": "address",
          "name": "",
          "type": "address"
        }
      ],
      "stateMutability": "view",
      "type": "function"
    },
    {
      "inputs": [
        {
          "internalType": "address",
          "name": "owner",
          "type": "address"
        }
      ],
      "name": "removeOwner",
      "outputs": [],
      "stateMutability": "nonpayable",
      "type": "function"
    },
    {
      "inputs": [
        {
          "internalType": "address",
          "name": "newAdmin",
          "type": "address"
        }
      ],
      "name": "renounceAdmin",
      "outputs": [],
      "stateMutability": "nonpayable",
      "type": "function"
    },
    {
      "inputs": [
        {
          "internalType": "address",
          "name": "_from",
          "type": "address"
        },
        {
          "internalType": "address",
          "name": "_to",
          "type": "address"
        }
      ],
      "name": "transferOwner",
      "outputs": [],
      "stateMutability": "nonpayable",
      "type": "function"
    },
    {
      "inputs": [],
      "name": "getOwners",
      "outputs": [
        {
          "internalType": "address[]",
          "name": "",
          "type": "address[]"
        }
      ],
      "stateMutability": "view",
      "type": "function"
    },
    {
      "inputs": [],
      "name": "getAdmin",
      "outputs": [
        {
          "internalType": "address",
          "name": "",
          "type": "address"
        }
      ],
      "stateMutability": "view",
      "type": "function"
    }
  ],
  "bytecode": "0x60806040523480156200001157600080fd5b5060405162001ed538038062001ed583398181016040528101906200003791906200054d565b80336000806101000a81548173ffffffffffffffffffffffffffffffffffffffff021916908373ffffffffffffffffffffffffffffffffffffffff160217905550600381511015620000c0576040517f08c379a0000000000000000000000000000000000000000000000000000000008152600401620000b7906200063a565b60405180910390fd5b60005b81518110156200015857600160026000848481518110620000e957620000e86200065c565b5b602002602001015173ffffffffffffffffffffffffffffffffffffffff1673ffffffffffffffffffffffffffffffffffffffff16815260200190815260200160002060006101000a81548160ff02191690831515021790555080806200014f90620006c4565b915050620000c3565b508060019080519060200190620001719291906200026c565b50600062000191600180549050603c6200023c60201b620010131760201c565b9050620001ab8160646200025460201b620010291760201c565b600381905550505081600460006101000a81548173ffffffffffffffffffffffffffffffffffffffff021916908373ffffffffffffffffffffffffffffffffffffffff160217905550336000806101000a81548173ffffffffffffffffffffffffffffffffffffffff021916908373ffffffffffffffffffffffffffffffffffffffff1602179055505050620007c3565b600081836200024c919062000711565b905092915050565b600081836200026491906200078b565b905092915050565b828054828255906000526020600020908101928215620002e8579160200282015b82811115620002e75782518260006101000a81548173ffffffffffffffffffffffffffffffffffffffff021916908373ffffffffffffffffffffffffffffffffffffffff160217905550916020019190600101906200028d565b5b509050620002f79190620002fb565b5090565b5b8082111562000316576000816000905550600101620002fc565b5090565b6000604051905090565b600080fd5b600080fd5b600073ffffffffffffffffffffffffffffffffffffffff82169050919050565b60006200035b826200032e565b9050919050565b60006200036f826200034e565b9050919050565b620003818162000362565b81146200038d57600080fd5b50565b600081519050620003a18162000376565b92915050565b600080fd5b6000601f19601f8301169050919050565b7f4e487b7100000000000000000000000000000000000000000000000000000000600052604160045260246000fd5b620003f782620003ac565b810181811067ffffffffffffffff82111715620004195762000418620003bd565b5b80604052505050565b60006200042e6200031a565b90506200043c8282620003ec565b919050565b600067ffffffffffffffff8211156200045f576200045e620003bd565b5b602082029050602081019050919050565b600080fd5b62000480816200034e565b81146200048c57600080fd5b50565b600081519050620004a08162000475565b92915050565b6000620004bd620004b78462000441565b62000422565b90508083825260208201905060208402830185811115620004e357620004e262000470565b5b835b81811015620005105780620004fb88826200048f565b845260208401935050602081019050620004e5565b5050509392505050565b600082601f830112620005325762000531620003a7565b5b815162000544848260208601620004a6565b91505092915050565b6000806040838503121562000567576200056662000324565b5b6000620005778582860162000390565b925050602083015167ffffffffffffffff8111156200059b576200059a62000329565b5b620005a9858286016200051a565b9150509250929050565b600082825260208201905092915050565b7f5468657265206e65656420746f2062652061746c65617374203320696e69746960008201527f616c207369676e61746f7269657320666f7220746869732077616c6c65740000602082015250565b600062000622603e83620005b3565b91506200062f82620005c4565b604082019050919050565b60006020820190508181036000830152620006558162000613565b9050919050565b7f4e487b7100000000000000000000000000000000000000000000000000000000600052603260045260246000fd5b7f4e487b7100000000000000000000000000000000000000000000000000000000600052601160045260246000fd5b6000819050919050565b6000620006d182620006ba565b91507fffffffffffffffffffffffffffffffffffffffffffffffffffffffffffffffff82036200070657620007056200068b565b5b600182019050919050565b60006200071e82620006ba565b91506200072b83620006ba565b92508282026200073b81620006ba565b915082820484148315176200075557620007546200068b565b5b5092915050565b7f4e487b7100000000000000000000000000000000000000000000000000000000600052601260045260246000fd5b60006200079882620006ba565b9150620007a583620006ba565b925082620007b857620007b76200075c565b5b828204905092915050565b61170280620007d36000396000f3fe608060405234801561001057600080fd5b50600436106100935760003560e01c80635e1fab0f116100665780635e1fab0f146101305780636e9960c31461014c5780637065cb481461016a578063a0e67e2b14610186578063f851a440146101a457610093565b8063025e7c2714610098578063173825d9146100c85780632f54bf6e146100e457806331678cf614610114575b600080fd5b6100b260048036038101906100ad91906110d8565b6101c2565b6040516100bf9190611146565b60405180910390f35b6100e260048036038101906100dd919061118d565b610201565b005b6100fe60048036038101906100f9919061118d565b610615565b60405161010b91906111d5565b60405180910390f35b61012e600480360381019061012991906111f0565b610635565b005b61014a6004803603810190610145919061118d565b610b00565b005b610154610c14565b6040516101619190611146565b60405180910390f35b610184600480360381019061017f919061118d565b610c3d565b005b61018e610f61565b60405161019b91906112ee565b60405180910390f35b6101ac610fef565b6040516101b99190611146565b60405180910390f35b600181815481106101d257600080fd5b906000526020600020016000915054906101000a900473ffffffffffffffffffffffffffffffffffffffff1681565b60008054906101000a900473ffffffffffffffffffffffffffffffffffffffff1673ffffffffffffffffffffffffffffffffffffffff163373ffffffffffffffffffffffffffffffffffffffff161461028f576040517f08c379a00000000000000000000000000000000000000000000000000000000081526004016102869061136d565b60405180910390fd5b80600073ffffffffffffffffffffffffffffffffffffffff168173ffffffffffffffffffffffffffffffffffffffff16036102ff576040517f08c379a00000000000000000000000000000000000000000000000000000000081526004016102f6906113ff565b60405180910390fd5b8160011515600260008373ffffffffffffffffffffffffffffffffffffffff1673ffffffffffffffffffffffffffffffffffffffff16815260200190815260200160002060009054906101000a900460ff16151514610393576040517f08c379a000000000000000000000000000000000000000000000000000000000815260040161038a9061146b565b60405180910390fd5b6000600260008573ffffffffffffffffffffffffffffffffffffffff1673ffffffffffffffffffffffffffffffffffffffff16815260200190815260200160002060006101000a81548160ff02191690831515021790555060005b600180805490506103ff91906114ba565b811015610539578373ffffffffffffffffffffffffffffffffffffffff1660018281548110610431576104306114ee565b5b9060005260206000200160009054906101000a900473ffffffffffffffffffffffffffffffffffffffff1673ffffffffffffffffffffffffffffffffffffffff160361052657600180808054905061048991906114ba565b8154811061049a576104996114ee565b5b9060005260206000200160009054906101000a900473ffffffffffffffffffffffffffffffffffffffff16600182815481106104d9576104d86114ee565b5b9060005260206000200160006101000a81548173ffffffffffffffffffffffffffffffffffffffff021916908373ffffffffffffffffffffffffffffffffffffffff160217905550610539565b80806105319061151d565b9150506103ee565b50600180548061054c5761054b611565565b5b6001900381819060005260206000200160006101000a81549073ffffffffffffffffffffffffffffffffffffffff02191690559055610610600180548060200260200160405190810160405280929190818152602001828054801561060657602002820191906000526020600020905b8160009054906101000a900473ffffffffffffffffffffffffffffffffffffffff1673ffffffffffffffffffffffffffffffffffffffff16815260200190600101908083116105bc575b505050505061103f565b505050565b60026020528060005260406000206000915054906101000a900460ff1681565b60008054906101000a900473ffffffffffffffffffffffffffffffffffffffff1673ffffffffffffffffffffffffffffffffffffffff163373ffffffffffffffffffffffffffffffffffffffff16146106c3576040517f08c379a00000000000000000000000000000000000000000000000000000000081526004016106ba9061136d565b60405180910390fd5b81600073ffffffffffffffffffffffffffffffffffffffff168173ffffffffffffffffffffffffffffffffffffffff1603610733576040517f08c379a000000000000000000000000000000000000000000000000000000000815260040161072a906113ff565b60405180910390fd5b81600073ffffffffffffffffffffffffffffffffffffffff168173ffffffffffffffffffffffffffffffffffffffff16036107a3576040517f08c379a000000000000000000000000000000000000000000000000000000000815260040161079a906113ff565b60405180910390fd5b8360011515600260008373ffffffffffffffffffffffffffffffffffffffff1673ffffffffffffffffffffffffffffffffffffffff16815260200190815260200160002060009054906101000a900460ff16151514610837576040517f08c379a000000000000000000000000000000000000000000000000000000000815260040161082e9061146b565b60405180910390fd5b8360001515600260008373ffffffffffffffffffffffffffffffffffffffff1673ffffffffffffffffffffffffffffffffffffffff16815260200190815260200160002060009054906101000a900460ff161515146108cb576040517f08c379a00000000000000000000000000000000000000000000000000000000081526004016108c2906115e0565b60405180910390fd5b60005b6001805490508110156109c1578673ffffffffffffffffffffffffffffffffffffffff1660018281548110610906576109056114ee565b5b9060005260206000200160009054906101000a900473ffffffffffffffffffffffffffffffffffffffff1673ffffffffffffffffffffffffffffffffffffffff16036109ae578560018281548110610961576109606114ee565b5b9060005260206000200160006101000a81548173ffffffffffffffffffffffffffffffffffffffff021916908373ffffffffffffffffffffffffffffffffffffffff1602179055506109c1565b80806109b99061151d565b9150506108ce565b506000600260008873ffffffffffffffffffffffffffffffffffffffff1673ffffffffffffffffffffffffffffffffffffffff16815260200190815260200160002060006101000a81548160ff0219169083151502179055506001600260008773ffffffffffffffffffffffffffffffffffffffff1673ffffffffffffffffffffffffffffffffffffffff16815260200190815260200160002060006101000a81548160ff0219169083151502179055508573ffffffffffffffffffffffffffffffffffffffff167f8001553a916ef2f495d26a907cc54d96ed840d7bda71e73194bf5a9df7a76b9060405160405180910390a28473ffffffffffffffffffffffffffffffffffffffff167ff39e6e1eb0edcf53c221607b54b00cd28f3196fed0a24994dc308b8f611b682d60405160405180910390a2505050505050565b60008054906101000a900473ffffffffffffffffffffffffffffffffffffffff1673ffffffffffffffffffffffffffffffffffffffff163373ffffffffffffffffffffffffffffffffffffffff1614610b8e576040517f08c379a0000000000000000000000000000000000000000000000000000000008152600401610b859061136d565b60405180910390fd5b806000806101000a81548173ffffffffffffffffffffffffffffffffffffffff021916908373ffffffffffffffffffffffffffffffffffffffff1602179055508073ffffffffffffffffffffffffffffffffffffffff167f1d751f0bc5c9e1dd4d5952599ce7bb9ef42169fb73003fc75d9e6a26d135136c60405160405180910390a250565b60008060009054906101000a900473ffffffffffffffffffffffffffffffffffffffff16905090565b60008054906101000a900473ffffffffffffffffffffffffffffffffffffffff1673ffffffffffffffffffffffffffffffffffffffff163373ffffffffffffffffffffffffffffffffffffffff1614610ccb576040517f08c379a0000000000000000000000000000000000000000000000000000000008152600401610cc29061136d565b60405180910390fd5b80600073ffffffffffffffffffffffffffffffffffffffff168173ffffffffffffffffffffffffffffffffffffffff1603610d3b576040517f08c379a0000000000000000000000000000000000000000000000000000000008152600401610d32906113ff565b60405180910390fd5b8160001515600260008373ffffffffffffffffffffffffffffffffffffffff1673ffffffffffffffffffffffffffffffffffffffff16815260200190815260200160002060009054906101000a900460ff16151514610dcf576040517f08c379a0000000000000000000000000000000000000000000000000000000008152600401610dc6906115e0565b60405180910390fd5b6001600260008573ffffffffffffffffffffffffffffffffffffffff1673ffffffffffffffffffffffffffffffffffffffff16815260200190815260200160002060006101000a81548160ff0219169083151502179055506001839080600181540180825580915050600190039060005260206000200160009091909190916101000a81548173ffffffffffffffffffffffffffffffffffffffff021916908373ffffffffffffffffffffffffffffffffffffffff1602179055508273ffffffffffffffffffffffffffffffffffffffff167ff39e6e1eb0edcf53c221607b54b00cd28f3196fed0a24994dc308b8f611b682d60405160405180910390a2610f5c6001805480602002602001604051908101604052809291908181526020018280548015610f5257602002820191906000526020600020905b8160009054906101000a900473ffffffffffffffffffffffffffffffffffffffff1673ffffffffffffffffffffffffffffffffffffffff1681526020019060010190808311610f08575b505050505061103f565b505050565b60606001805480602002602001604051908101604052809291908181526020018280548015610fe557602002820191906000526020600020905b8160009054906101000a900473ffffffffffffffffffffffffffffffffffffffff1673ffffffffffffffffffffffffffffffffffffffff1681526020019060010190808311610f9b575b5050505050905090565b60008054906101000a900473ffffffffffffffffffffffffffffffffffffffff1681565b600081836110219190611600565b905092915050565b600081836110379190611671565b905092915050565b600061104d8251603c611013565b905061105a816064611029565b6003819055507f672e46ac0e6acc1662bb680b70032b6d2669924997353a59f789f7be780f8d3e60035460405161109191906116b1565b60405180910390a15050565b600080fd5b6000819050919050565b6110b5816110a2565b81146110c057600080fd5b50565b6000813590506110d2816110ac565b92915050565b6000602082840312156110ee576110ed61109d565b5b60006110fc848285016110c3565b91505092915050565b600073ffffffffffffffffffffffffffffffffffffffff82169050919050565b600061113082611105565b9050919050565b61114081611125565b82525050565b600060208201905061115b6000830184611137565b92915050565b61116a81611125565b811461117557600080fd5b50565b60008135905061118781611161565b92915050565b6000602082840312156111a3576111a261109d565b5b60006111b184828501611178565b91505092915050565b60008115159050919050565b6111cf816111ba565b82525050565b60006020820190506111ea60008301846111c6565b92915050565b600080604083850312156112075761120661109d565b5b600061121585828601611178565b925050602061122685828601611178565b9150509250929050565b600081519050919050565b600082825260208201905092915050565b6000819050602082019050919050565b61126581611125565b82525050565b6000611277838361125c565b60208301905092915050565b6000602082019050919050565b600061129b82611230565b6112a5818561123b565b93506112b08361124c565b8060005b838110156112e15781516112c8888261126b565b97506112d383611283565b9250506001810190506112b4565b5085935050505092915050565b600060208201905081810360008301526113088184611290565b905092915050565b600082825260208201905092915050565b7f4f6e6c792061646d696e2063616e206163636573730000000000000000000000600082015250565b6000611357601583611310565b915061136282611321565b602082019050919050565b600060208201905081810360008301526113868161134a565b9050919050565b7f5370656369666965642064657374696e6174696f6e20646f65736e277420657860008201527f6973740000000000000000000000000000000000000000000000000000000000602082015250565b60006113e9602383611310565b91506113f48261138d565b604082019050919050565b60006020820190508181036000830152611418816113dc565b9050919050565b7f54686973206f776e657220646f65736e27742065786973740000000000000000600082015250565b6000611455601883611310565b91506114608261141f565b602082019050919050565b6000602082019050818103600083015261148481611448565b9050919050565b7f4e487b7100000000000000000000000000000000000000000000000000000000600052601160045260246000fd5b60006114c5826110a2565b91506114d0836110a2565b92508282039050818111156114e8576114e761148b565b5b92915050565b7f4e487b7100000000000000000000000000000000000000000000000000000000600052603260045260246000fd5b6000611528826110a2565b91507fffffffffffffffffffffffffffffffffffffffffffffffffffffffffffffffff820361155a5761155961148b565b5b600182019050919050565b7f4e487b7100000000000000000000000000000000000000000000000000000000600052603160045260246000fd5b7f54686973206f776e657220616c72656164792065786973747300000000000000600082015250565b60006115ca601983611310565b91506115d582611594565b602082019050919050565b600060208201905081810360008301526115f9816115bd565b9050919050565b600061160b826110a2565b9150611616836110a2565b9250828202611624816110a2565b9150828204841483151761163b5761163a61148b565b5b5092915050565b7f4e487b7100000000000000000000000000000000000000000000000000000000600052601260045260246000fd5b600061167c826110a2565b9150611687836110a2565b92508261169757611696611642565b5b828204905092915050565b6116ab816110a2565b82525050565b60006020820190506116c660008301846116a2565b9291505056fea26469706673582212201680ea1fb5555d8256b8049db61e2329a9035580783597afc29e779e0fc6078964736f6c63430008110033",
  "immutableReferences": {},
  "source": "// SPDX-License-Identifier: MIT\r\n\r\npragma solidity ^0.8.9;\r\n\r\nimport \"../node_modules/@openzeppelin/contracts/utils/math/SafeMath.sol\";\r\nimport \"./Access.sol\";\r\n\r\n\r\ninterface IWalletA {\r\n    // Allows admin to add new owner to the wallet\r\n    function addOwner(address owner) external;\r\n\r\n    // Allows admin to remove owner from the wallet\r\n    function removeOwner(address owner) external;\r\n\r\n    // Allows admin to transfer owner from one wallet to  another\r\n    function transferOwner(address _from, address _to) external;\r\n\r\n    // Allows an owner to confirm a transaction.\r\n    function confirmTransaction(uint256 transactionId) external;\r\n\r\n    // Allows anyone to execute a confirmed transaction.\r\n    function executeTransaction(uint256 transactionId) external;\r\n\r\n    // Allows an owner to revoke a confirmation for a transaction.\r\n    function revokeTransaction(uint256 transactionId) external;\r\n}\r\n\r\ncontract AccessWallet is Access {\r\n    using SafeMath for uint256;\r\n\r\n    IWalletA _walletInterface;\r\n\r\n    // Contract constructor instantiates wallet interface and sets msg.sender to admin\r\n     \r\n    constructor(IWalletA wallet_, address[] memory _owners) Access(_owners){\r\n        _walletInterface = IWalletA(wallet_);\r\n        admin = msg.sender;\r\n    }\r\n\r\n    function getOwners() external view returns (address[] memory) {\r\n        return owners;\r\n     }\r\n\r\n    function getAdmin() external view returns (address) {\r\n        return admin;\r\n    }\r\n}",
  "sourcePath": "C:\\Users\\lenovo\\Desktop\\Multi sig wallet\\contracts\\AccessWallet.sol",
  "compiler": {
    "name": "solc",
    "version": "0.8.17+commit.8df45f5f.Emscripten.clang"
  },
  "schemaVersion": "3.4.10",
  "updatedAt": "2022-12-17T15:11:45.953Z",
  "devdoc": {
    "kind": "dev",
    "methods": {},
    "version": 1
  },
  "userdoc": {
    "kind": "user",
    "methods": {},
    "version": 1
  }
}