{
  "contractName": "Access",
  "abi": [
    {
      "inputs": [
        {
          "internalType": "address[]",
          "name": "_owners",
          "type": "address[]"
        }
      ],
      "stateMutability": "nonpayable",
      "type": "constructor"
    },
    {
      "anonymous": false,
      "inputs": [
        {
          "indexed": true,
          "internalType": "address",
          "name": "newAdmin",
          "type": "address"
        }
      ],
      "name": "AdminTransfer",
      "type": "event"
    },
    {
      "anonymous": false,
      "inputs": [
        {
          "indexed": true,
          "internalType": "address",
          "name": "sender",
          "type": "address"
        },
        {
          "indexed": true,
          "internalType": "uint256",
          "name": "transactionId",
          "type": "uint256"
        }
      ],
      "name": "Confirmation",
      "type": "event"
    },
    {
      "anonymous": false,
      "inputs": [
        {
          "indexed": true,
          "internalType": "address",
          "name": "sender",
          "type": "address"
        },
        {
          "indexed": false,
          "internalType": "uint256",
          "name": "value",
          "type": "uint256"
        }
      ],
      "name": "Deposit",
      "type": "event"
    },
    {
      "anonymous": false,
      "inputs": [
        {
          "indexed": true,
          "internalType": "uint256",
          "name": "transactionId",
          "type": "uint256"
        }
      ],
      "name": "Execution",
      "type": "event"
    },
    {
      "anonymous": false,
      "inputs": [
        {
          "indexed": true,
          "internalType": "uint256",
          "name": "transactionId",
          "type": "uint256"
        }
      ],
      "name": "ExecutionFailure",
      "type": "event"
    },
    {
      "anonymous": false,
      "inputs": [
        {
          "indexed": true,
          "internalType": "address",
          "name": "owner",
          "type": "address"
        }
      ],
      "name": "OwnerAddition",
      "type": "event"
    },
    {
      "anonymous": false,
      "inputs": [
        {
          "indexed": true,
          "internalType": "address",
          "name": "owner",
          "type": "address"
        }
      ],
      "name": "OwnerRemoval",
      "type": "event"
    },
    {
      "anonymous": false,
      "inputs": [
        {
          "indexed": false,
          "internalType": "uint256",
          "name": "quorum",
          "type": "uint256"
        }
      ],
      "name": "QuorumUpdate",
      "type": "event"
    },
    {
      "anonymous": false,
      "inputs": [
        {
          "indexed": true,
          "internalType": "address",
          "name": "sender",
          "type": "address"
        },
        {
          "indexed": true,
          "internalType": "uint256",
          "name": "transactionId",
          "type": "uint256"
        }
      ],
      "name": "Revocation",
      "type": "event"
    },
    {
      "anonymous": false,
      "inputs": [
        {
          "indexed": true,
          "internalType": "uint256",
          "name": "transactionId",
          "type": "uint256"
        }
      ],
      "name": "Submission",
      "type": "event"
    },
    {
      "inputs": [],
      "name": "admin",
      "outputs": [
        {
          "internalType": "address",
          "name": "",
          "type": "address"
        }
      ],
      "stateMutability": "view",
      "type": "function",
      "constant": true
    },
    {
      "inputs": [
        {
          "internalType": "address",
          "name": "",
          "type": "address"
        }
      ],
      "name": "isOwner",
      "outputs": [
        {
          "internalType": "bool",
          "name": "",
          "type": "bool"
        }
      ],
      "stateMutability": "view",
      "type": "function",
      "constant": true
    },
    {
      "inputs": [
        {
          "internalType": "uint256",
          "name": "",
          "type": "uint256"
        }
      ],
      "name": "owners",
      "outputs": [
        {
          "internalType": "address",
          "name": "",
          "type": "address"
        }
      ],
      "stateMutability": "view",
      "type": "function",
      "constant": true
    },
    {
      "inputs": [
        {
          "internalType": "address",
          "name": "owner",
          "type": "address"
        }
      ],
      "name": "addOwner",
      "outputs": [],
      "stateMutability": "nonpayable",
      "type": "function"
    },
    {
      "inputs": [
        {
          "internalType": "address",
          "name": "owner",
          "type": "address"
        }
      ],
      "name": "removeOwner",
      "outputs": [],
      "stateMutability": "nonpayable",
      "type": "function"
    },
    {
      "inputs": [
        {
          "internalType": "address",
          "name": "_from",
          "type": "address"
        },
        {
          "internalType": "address",
          "name": "_to",
          "type": "address"
        }
      ],
      "name": "transferOwner",
      "outputs": [],
      "stateMutability": "nonpayable",
      "type": "function"
    },
    {
      "inputs": [
        {
          "internalType": "address",
          "name": "newAdmin",
          "type": "address"
        }
      ],
      "name": "renounceAdmin",
      "outputs": [],
      "stateMutability": "nonpayable",
      "type": "function"
    }
  ],
  "bytecode": "0x60806040523480156200001157600080fd5b5060405162001c0e38038062001c0e833981810160405281019062000037919062000484565b336000806101000a81548173ffffffffffffffffffffffffffffffffffffffff021916908373ffffffffffffffffffffffffffffffffffffffff160217905550600381511015620000bf576040517f08c379a0000000000000000000000000000000000000000000000000000000008152600401620000b6906200055c565b60405180910390fd5b60005b81518110156200015757600160026000848481518110620000e857620000e76200057e565b5b602002602001015173ffffffffffffffffffffffffffffffffffffffff1673ffffffffffffffffffffffffffffffffffffffff16815260200190815260200160002060006101000a81548160ff02191690831515021790555080806200014e90620005e6565b915050620000c2565b50806001908051906020019062000170929190620001e8565b50600062000190600180549050603c620001b860201b62000f0a1760201c565b9050620001aa816064620001d060201b62000f201760201c565b6003819055505050620006e5565b60008183620001c8919062000633565b905092915050565b60008183620001e09190620006ad565b905092915050565b82805482825590600052602060002090810192821562000264579160200282015b82811115620002635782518260006101000a81548173ffffffffffffffffffffffffffffffffffffffff021916908373ffffffffffffffffffffffffffffffffffffffff1602179055509160200191906001019062000209565b5b50905062000273919062000277565b5090565b5b808211156200029257600081600090555060010162000278565b5090565b6000604051905090565b600080fd5b600080fd5b600080fd5b6000601f19601f8301169050919050565b7f4e487b7100000000000000000000000000000000000000000000000000000000600052604160045260246000fd5b620002fa82620002af565b810181811067ffffffffffffffff821117156200031c576200031b620002c0565b5b80604052505050565b60006200033162000296565b90506200033f8282620002ef565b919050565b600067ffffffffffffffff821115620003625762000361620002c0565b5b602082029050602081019050919050565b600080fd5b600073ffffffffffffffffffffffffffffffffffffffff82169050919050565b6000620003a58262000378565b9050919050565b620003b78162000398565b8114620003c357600080fd5b50565b600081519050620003d781620003ac565b92915050565b6000620003f4620003ee8462000344565b62000325565b905080838252602082019050602084028301858111156200041a576200041962000373565b5b835b81811015620004475780620004328882620003c6565b8452602084019350506020810190506200041c565b5050509392505050565b600082601f830112620004695762000468620002aa565b5b81516200047b848260208601620003dd565b91505092915050565b6000602082840312156200049d576200049c620002a0565b5b600082015167ffffffffffffffff811115620004be57620004bd620002a5565b5b620004cc8482850162000451565b91505092915050565b600082825260208201905092915050565b7f5468657265206e65656420746f2062652061746c65617374203320696e69746960008201527f616c207369676e61746f7269657320666f7220746869732077616c6c65740000602082015250565b600062000544603e83620004d5565b91506200055182620004e6565b604082019050919050565b60006020820190508181036000830152620005778162000535565b9050919050565b7f4e487b7100000000000000000000000000000000000000000000000000000000600052603260045260246000fd5b7f4e487b7100000000000000000000000000000000000000000000000000000000600052601160045260246000fd5b6000819050919050565b6000620005f382620005dc565b91507fffffffffffffffffffffffffffffffffffffffffffffffffffffffffffffffff8203620006285762000627620005ad565b5b600182019050919050565b60006200064082620005dc565b91506200064d83620005dc565b92508282026200065d81620005dc565b91508282048414831517620006775762000676620005ad565b5b5092915050565b7f4e487b7100000000000000000000000000000000000000000000000000000000600052601260045260246000fd5b6000620006ba82620005dc565b9150620006c783620005dc565b925082620006da57620006d96200067e565b5b828204905092915050565b61151980620006f56000396000f3fe608060405234801561001057600080fd5b506004361061007d5760003560e01c806331678cf61161005b57806331678cf6146100fe5780635e1fab0f1461011a5780637065cb4814610136578063f851a440146101525761007d565b8063025e7c2714610082578063173825d9146100b25780632f54bf6e146100ce575b600080fd5b61009c60048036038101906100979190610fcf565b610170565b6040516100a9919061103d565b60405180910390f35b6100cc60048036038101906100c79190611084565b6101af565b005b6100e860048036038101906100e39190611084565b6105c3565b6040516100f591906110cc565b60405180910390f35b610118600480360381019061011391906110e7565b6105e3565b005b610134600480360381019061012f9190611084565b610aae565b005b610150600480360381019061014b9190611084565b610bc2565b005b61015a610ee6565b604051610167919061103d565b60405180910390f35b6001818154811061018057600080fd5b906000526020600020016000915054906101000a900473ffffffffffffffffffffffffffffffffffffffff1681565b60008054906101000a900473ffffffffffffffffffffffffffffffffffffffff1673ffffffffffffffffffffffffffffffffffffffff163373ffffffffffffffffffffffffffffffffffffffff161461023d576040517f08c379a000000000000000000000000000000000000000000000000000000000815260040161023490611184565b60405180910390fd5b80600073ffffffffffffffffffffffffffffffffffffffff168173ffffffffffffffffffffffffffffffffffffffff16036102ad576040517f08c379a00000000000000000000000000000000000000000000000000000000081526004016102a490611216565b60405180910390fd5b8160011515600260008373ffffffffffffffffffffffffffffffffffffffff1673ffffffffffffffffffffffffffffffffffffffff16815260200190815260200160002060009054906101000a900460ff16151514610341576040517f08c379a000000000000000000000000000000000000000000000000000000000815260040161033890611282565b60405180910390fd5b6000600260008573ffffffffffffffffffffffffffffffffffffffff1673ffffffffffffffffffffffffffffffffffffffff16815260200190815260200160002060006101000a81548160ff02191690831515021790555060005b600180805490506103ad91906112d1565b8110156104e7578373ffffffffffffffffffffffffffffffffffffffff16600182815481106103df576103de611305565b5b9060005260206000200160009054906101000a900473ffffffffffffffffffffffffffffffffffffffff1673ffffffffffffffffffffffffffffffffffffffff16036104d457600180808054905061043791906112d1565b8154811061044857610447611305565b5b9060005260206000200160009054906101000a900473ffffffffffffffffffffffffffffffffffffffff166001828154811061048757610486611305565b5b9060005260206000200160006101000a81548173ffffffffffffffffffffffffffffffffffffffff021916908373ffffffffffffffffffffffffffffffffffffffff1602179055506104e7565b80806104df90611334565b91505061039c565b5060018054806104fa576104f961137c565b5b6001900381819060005260206000200160006101000a81549073ffffffffffffffffffffffffffffffffffffffff021916905590556105be60018054806020026020016040519081016040528092919081815260200182805480156105b457602002820191906000526020600020905b8160009054906101000a900473ffffffffffffffffffffffffffffffffffffffff1673ffffffffffffffffffffffffffffffffffffffff168152602001906001019080831161056a575b5050505050610f36565b505050565b60026020528060005260406000206000915054906101000a900460ff1681565b60008054906101000a900473ffffffffffffffffffffffffffffffffffffffff1673ffffffffffffffffffffffffffffffffffffffff163373ffffffffffffffffffffffffffffffffffffffff1614610671576040517f08c379a000000000000000000000000000000000000000000000000000000000815260040161066890611184565b60405180910390fd5b81600073ffffffffffffffffffffffffffffffffffffffff168173ffffffffffffffffffffffffffffffffffffffff16036106e1576040517f08c379a00000000000000000000000000000000000000000000000000000000081526004016106d890611216565b60405180910390fd5b81600073ffffffffffffffffffffffffffffffffffffffff168173ffffffffffffffffffffffffffffffffffffffff1603610751576040517f08c379a000000000000000000000000000000000000000000000000000000000815260040161074890611216565b60405180910390fd5b8360011515600260008373ffffffffffffffffffffffffffffffffffffffff1673ffffffffffffffffffffffffffffffffffffffff16815260200190815260200160002060009054906101000a900460ff161515146107e5576040517f08c379a00000000000000000000000000000000000000000000000000000000081526004016107dc90611282565b60405180910390fd5b8360001515600260008373ffffffffffffffffffffffffffffffffffffffff1673ffffffffffffffffffffffffffffffffffffffff16815260200190815260200160002060009054906101000a900460ff16151514610879576040517f08c379a0000000000000000000000000000000000000000000000000000000008152600401610870906113f7565b60405180910390fd5b60005b60018054905081101561096f578673ffffffffffffffffffffffffffffffffffffffff16600182815481106108b4576108b3611305565b5b9060005260206000200160009054906101000a900473ffffffffffffffffffffffffffffffffffffffff1673ffffffffffffffffffffffffffffffffffffffff160361095c57856001828154811061090f5761090e611305565b5b9060005260206000200160006101000a81548173ffffffffffffffffffffffffffffffffffffffff021916908373ffffffffffffffffffffffffffffffffffffffff16021790555061096f565b808061096790611334565b91505061087c565b506000600260008873ffffffffffffffffffffffffffffffffffffffff1673ffffffffffffffffffffffffffffffffffffffff16815260200190815260200160002060006101000a81548160ff0219169083151502179055506001600260008773ffffffffffffffffffffffffffffffffffffffff1673ffffffffffffffffffffffffffffffffffffffff16815260200190815260200160002060006101000a81548160ff0219169083151502179055508573ffffffffffffffffffffffffffffffffffffffff167f8001553a916ef2f495d26a907cc54d96ed840d7bda71e73194bf5a9df7a76b9060405160405180910390a28473ffffffffffffffffffffffffffffffffffffffff167ff39e6e1eb0edcf53c221607b54b00cd28f3196fed0a24994dc308b8f611b682d60405160405180910390a2505050505050565b60008054906101000a900473ffffffffffffffffffffffffffffffffffffffff1673ffffffffffffffffffffffffffffffffffffffff163373ffffffffffffffffffffffffffffffffffffffff1614610b3c576040517f08c379a0000000000000000000000000000000000000000000000000000000008152600401610b3390611184565b60405180910390fd5b806000806101000a81548173ffffffffffffffffffffffffffffffffffffffff021916908373ffffffffffffffffffffffffffffffffffffffff1602179055508073ffffffffffffffffffffffffffffffffffffffff167f1d751f0bc5c9e1dd4d5952599ce7bb9ef42169fb73003fc75d9e6a26d135136c60405160405180910390a250565b60008054906101000a900473ffffffffffffffffffffffffffffffffffffffff1673ffffffffffffffffffffffffffffffffffffffff163373ffffffffffffffffffffffffffffffffffffffff1614610c50576040517f08c379a0000000000000000000000000000000000000000000000000000000008152600401610c4790611184565b60405180910390fd5b80600073ffffffffffffffffffffffffffffffffffffffff168173ffffffffffffffffffffffffffffffffffffffff1603610cc0576040517f08c379a0000000000000000000000000000000000000000000000000000000008152600401610cb790611216565b60405180910390fd5b8160001515600260008373ffffffffffffffffffffffffffffffffffffffff1673ffffffffffffffffffffffffffffffffffffffff16815260200190815260200160002060009054906101000a900460ff16151514610d54576040517f08c379a0000000000000000000000000000000000000000000000000000000008152600401610d4b906113f7565b60405180910390fd5b6001600260008573ffffffffffffffffffffffffffffffffffffffff1673ffffffffffffffffffffffffffffffffffffffff16815260200190815260200160002060006101000a81548160ff0219169083151502179055506001839080600181540180825580915050600190039060005260206000200160009091909190916101000a81548173ffffffffffffffffffffffffffffffffffffffff021916908373ffffffffffffffffffffffffffffffffffffffff1602179055508273ffffffffffffffffffffffffffffffffffffffff167ff39e6e1eb0edcf53c221607b54b00cd28f3196fed0a24994dc308b8f611b682d60405160405180910390a2610ee16001805480602002602001604051908101604052809291908181526020018280548015610ed757602002820191906000526020600020905b8160009054906101000a900473ffffffffffffffffffffffffffffffffffffffff1673ffffffffffffffffffffffffffffffffffffffff1681526020019060010190808311610e8d575b5050505050610f36565b505050565b60008054906101000a900473ffffffffffffffffffffffffffffffffffffffff1681565b60008183610f189190611417565b905092915050565b60008183610f2e9190611488565b905092915050565b6000610f448251603c610f0a565b9050610f51816064610f20565b6003819055507f672e46ac0e6acc1662bb680b70032b6d2669924997353a59f789f7be780f8d3e600354604051610f8891906114c8565b60405180910390a15050565b600080fd5b6000819050919050565b610fac81610f99565b8114610fb757600080fd5b50565b600081359050610fc981610fa3565b92915050565b600060208284031215610fe557610fe4610f94565b5b6000610ff384828501610fba565b91505092915050565b600073ffffffffffffffffffffffffffffffffffffffff82169050919050565b600061102782610ffc565b9050919050565b6110378161101c565b82525050565b6000602082019050611052600083018461102e565b92915050565b6110618161101c565b811461106c57600080fd5b50565b60008135905061107e81611058565b92915050565b60006020828403121561109a57611099610f94565b5b60006110a88482850161106f565b91505092915050565b60008115159050919050565b6110c6816110b1565b82525050565b60006020820190506110e160008301846110bd565b92915050565b600080604083850312156110fe576110fd610f94565b5b600061110c8582860161106f565b925050602061111d8582860161106f565b9150509250929050565b600082825260208201905092915050565b7f4f6e6c792061646d696e2063616e206163636573730000000000000000000000600082015250565b600061116e601583611127565b915061117982611138565b602082019050919050565b6000602082019050818103600083015261119d81611161565b9050919050565b7f5370656369666965642064657374696e6174696f6e20646f65736e277420657860008201527f6973740000000000000000000000000000000000000000000000000000000000602082015250565b6000611200602383611127565b915061120b826111a4565b604082019050919050565b6000602082019050818103600083015261122f816111f3565b9050919050565b7f54686973206f776e657220646f65736e27742065786973740000000000000000600082015250565b600061126c601883611127565b915061127782611236565b602082019050919050565b6000602082019050818103600083015261129b8161125f565b9050919050565b7f4e487b7100000000000000000000000000000000000000000000000000000000600052601160045260246000fd5b60006112dc82610f99565b91506112e783610f99565b92508282039050818111156112ff576112fe6112a2565b5b92915050565b7f4e487b7100000000000000000000000000000000000000000000000000000000600052603260045260246000fd5b600061133f82610f99565b91507fffffffffffffffffffffffffffffffffffffffffffffffffffffffffffffffff8203611371576113706112a2565b5b600182019050919050565b7f4e487b7100000000000000000000000000000000000000000000000000000000600052603160045260246000fd5b7f54686973206f776e657220616c72656164792065786973747300000000000000600082015250565b60006113e1601983611127565b91506113ec826113ab565b602082019050919050565b60006020820190508181036000830152611410816113d4565b9050919050565b600061142282610f99565b915061142d83610f99565b925082820261143b81610f99565b91508282048414831517611452576114516112a2565b5b5092915050565b7f4e487b7100000000000000000000000000000000000000000000000000000000600052601260045260246000fd5b600061149382610f99565b915061149e83610f99565b9250826114ae576114ad611459565b5b828204905092915050565b6114c281610f99565b82525050565b60006020820190506114dd60008301846114b9565b9291505056fea26469706673582212207786b0ab0879a6297b579585c8daa502267c801a8c8518039c18095156ba455b64736f6c63430008110033",
  "immutableReferences": {},
  "source": "// SPDX-License-Identifier: MIT\r\n\r\npragma solidity ^0.8.9;\r\n\r\nimport \"../node_modules/@openzeppelin/contracts/utils/math/SafeMath.sol\";\r\n\r\ncontract Access {\r\n    using SafeMath for uint256;\r\n\r\n    event Deposit(address indexed sender, uint256 value);\r\n    event Submission(uint256 indexed transactionId);\r\n    event Confirmation(address indexed sender, uint256 indexed transactionId);\r\n    event Execution(uint256 indexed transactionId);\r\n    event ExecutionFailure(uint256 indexed transactionId);\r\n    event Revocation(address indexed sender, uint256 indexed transactionId);\r\n    event OwnerAddition(address indexed owner);\r\n    event OwnerRemoval(address indexed owner);\r\n    event QuorumUpdate(uint256 quorum);\r\n    event AdminTransfer(address indexed newAdmin);\r\n\r\n    address public admin;\r\n    address[] public owners;\r\n    mapping(address => bool) public isOwner;\r\n    uint256 minConfirmationsRequired;\r\n\r\n    modifier onlyAdmin() {\r\n        require(msg.sender == admin, \"Only admin can access\");\r\n        _;\r\n    }\r\n    modifier notNull(address _address) {\r\n        require(_address != address(0), \"Specified destination doesn't exist\");\r\n        _;\r\n    }\r\n    modifier ownerExistsMod(address owner) {\r\n        require(isOwner[owner] == true, \"This owner doesn't exist\");\r\n        _;\r\n    }\r\n\r\n    modifier notOwnerExistsMod(address owner) {\r\n        require(isOwner[owner] == false, \"This owner already exists\");\r\n        _;\r\n    }\r\n\r\n    \r\n    // Contract constructor instantiates wallet interface and sets msg.sender to admin\r\n     \r\n    constructor(address[] memory _owners) {\r\n        admin = msg.sender;\r\n        require(\r\n            _owners.length >= 3,\r\n            \"There need to be atleast 3 initial signatories for this wallet\"\r\n        );\r\n        for (uint256 i = 0; i < _owners.length; i++) {\r\n            isOwner[_owners[i]] = true;\r\n        }\r\n        owners = _owners;\r\n        uint256 num = SafeMath.mul(owners.length, 60);\r\n        minConfirmationsRequired = SafeMath.div(num, 100);\r\n    }\r\n\r\n\r\n    function addOwner(address owner)\r\n        public\r\n        onlyAdmin\r\n        notNull(owner)\r\n        notOwnerExistsMod(owner)\r\n    {\r\n        // add owner\r\n        isOwner[owner] = true;\r\n        owners.push(owner);\r\n\r\n        // emit event\r\n        emit OwnerAddition(owner);\r\n\r\n        // update minConfirmationsRequired\r\n        updateMinConfirmationsRequired(owners);\r\n    }\r\n\r\n    function removeOwner(address owner)\r\n        public\r\n        onlyAdmin\r\n        notNull(owner)\r\n        ownerExistsMod(owner)\r\n    {\r\n        // remove owner\r\n        isOwner[owner] = false;\r\n\r\n        // iterate over owners and remove the current owner\r\n        for (uint256 i = 0; i < owners.length - 1; i++)\r\n            if (owners[i] == owner) {\r\n                owners[i] = owners[owners.length - 1];\r\n                break;\r\n            }\r\n        owners.pop();\r\n\r\n        // update quorum\r\n        updateMinConfirmationsRequired(owners);\r\n    }\r\n\r\n    function transferOwner(address _from, address _to)\r\n        public\r\n        onlyAdmin\r\n        notNull(_from)\r\n        notNull(_to)\r\n        ownerExistsMod(_from)\r\n        notOwnerExistsMod(_to)\r\n    {\r\n        // iterate over owners\r\n        for (uint256 i = 0; i < owners.length; i++)\r\n            // if the curernt owner\r\n            if (owners[i] == _from) {\r\n                // replace with new owner address\r\n                owners[i] = _to;\r\n                break;\r\n            }\r\n\r\n        // reset owner addresses\r\n        isOwner[_from] = false;\r\n        isOwner[_to] = true;\r\n\r\n        // emit events\r\n        emit OwnerRemoval(_from);\r\n        emit OwnerAddition(_to);\r\n    }\r\n    \r\n    //  Allows admin to transfer admin rights to another address\r\n    function renounceAdmin(address newAdmin) public onlyAdmin {\r\n        admin = newAdmin;\r\n\r\n        emit AdminTransfer(newAdmin);\r\n    }\r\n\r\n    // Updates the new quorum value\r\n    function updateMinConfirmationsRequired(address[] memory _owners) internal {\r\n        uint256 num = SafeMath.mul(_owners.length, 60);\r\n        minConfirmationsRequired = SafeMath.div(num, 100);\r\n\r\n        emit QuorumUpdate(minConfirmationsRequired);\r\n    }\r\n}",
  "sourcePath": "C:\\Users\\lenovo\\Desktop\\Multi sig wallet\\contracts\\Access.sol",
  "compiler": {
    "name": "solc",
    "version": "0.8.17+commit.8df45f5f.Emscripten.clang"
  },
  "schemaVersion": "3.4.10",
  "updatedAt": "2022-12-17T15:12:51.757Z",
  "networkType": "ethereum",
  "devdoc": {
    "kind": "dev",
    "methods": {},
    "version": 1
  },
  "userdoc": {
    "kind": "user",
    "methods": {},
    "version": 1
  }
}