{
  "contractName": "Multisig",
  "abi": [
    {
      "inputs": [
        {
          "internalType": "address[]",
          "name": "_owners",
          "type": "address[]"
        },
        {
          "internalType": "uint256",
          "name": "_numOfConfirmationRequired",
          "type": "uint256"
        }
      ],
      "stateMutability": "nonpayable",
      "type": "constructor"
    },
    {
      "anonymous": false,
      "inputs": [
        {
          "indexed": true,
          "internalType": "address",
          "name": "newAdmin",
          "type": "address"
        }
      ],
      "name": "AdminTransfer",
      "type": "event"
    },
    {
      "anonymous": false,
      "inputs": [
        {
          "indexed": true,
          "internalType": "address",
          "name": "sender",
          "type": "address"
        },
        {
          "indexed": true,
          "internalType": "uint256",
          "name": "transactionId",
          "type": "uint256"
        }
      ],
      "name": "Confirmation",
      "type": "event"
    },
    {
      "anonymous": false,
      "inputs": [
        {
          "indexed": true,
          "internalType": "address",
          "name": "owner",
          "type": "address"
        },
        {
          "indexed": true,
          "internalType": "uint256",
          "name": "transactionId",
          "type": "uint256"
        }
      ],
      "name": "ConfirmationTransaction",
      "type": "event"
    },
    {
      "anonymous": false,
      "inputs": [
        {
          "indexed": true,
          "internalType": "address",
          "name": "sender",
          "type": "address"
        },
        {
          "indexed": false,
          "internalType": "uint256",
          "name": "value",
          "type": "uint256"
        }
      ],
      "name": "Deposit",
      "type": "event"
    },
    {
      "anonymous": false,
      "inputs": [
        {
          "indexed": true,
          "internalType": "address",
          "name": "sender",
          "type": "address"
        },
        {
          "indexed": false,
          "internalType": "uint256",
          "name": "amount",
          "type": "uint256"
        },
        {
          "indexed": false,
          "internalType": "uint256",
          "name": "balance",
          "type": "uint256"
        }
      ],
      "name": "Deposite",
      "type": "event"
    },
    {
      "anonymous": false,
      "inputs": [
        {
          "indexed": true,
          "internalType": "address",
          "name": "owner",
          "type": "address"
        },
        {
          "indexed": true,
          "internalType": "uint256",
          "name": "transactionId",
          "type": "uint256"
        }
      ],
      "name": "ExecuteTransaction",
      "type": "event"
    },
    {
      "anonymous": false,
      "inputs": [
        {
          "indexed": true,
          "internalType": "uint256",
          "name": "transactionId",
          "type": "uint256"
        }
      ],
      "name": "Execution",
      "type": "event"
    },
    {
      "anonymous": false,
      "inputs": [
        {
          "indexed": true,
          "internalType": "uint256",
          "name": "transactionId",
          "type": "uint256"
        }
      ],
      "name": "ExecutionFailure",
      "type": "event"
    },
    {
      "anonymous": false,
      "inputs": [
        {
          "indexed": true,
          "internalType": "address",
          "name": "owner",
          "type": "address"
        }
      ],
      "name": "OwnerAddition",
      "type": "event"
    },
    {
      "anonymous": false,
      "inputs": [
        {
          "indexed": true,
          "internalType": "address",
          "name": "owner",
          "type": "address"
        }
      ],
      "name": "OwnerRemoval",
      "type": "event"
    },
    {
      "anonymous": false,
      "inputs": [
        {
          "indexed": false,
          "internalType": "uint256",
          "name": "quorum",
          "type": "uint256"
        }
      ],
      "name": "QuorumUpdate",
      "type": "event"
    },
    {
      "anonymous": false,
      "inputs": [
        {
          "indexed": true,
          "internalType": "address",
          "name": "sender",
          "type": "address"
        },
        {
          "indexed": true,
          "internalType": "uint256",
          "name": "transactionId",
          "type": "uint256"
        }
      ],
      "name": "Revocation",
      "type": "event"
    },
    {
      "anonymous": false,
      "inputs": [
        {
          "indexed": true,
          "internalType": "address",
          "name": "owner",
          "type": "address"
        },
        {
          "indexed": true,
          "internalType": "uint256",
          "name": "transactionId",
          "type": "uint256"
        }
      ],
      "name": "RevokeConfirmation",
      "type": "event"
    },
    {
      "anonymous": false,
      "inputs": [
        {
          "indexed": true,
          "internalType": "uint256",
          "name": "transactionId",
          "type": "uint256"
        }
      ],
      "name": "Submission",
      "type": "event"
    },
    {
      "anonymous": false,
      "inputs": [
        {
          "indexed": true,
          "internalType": "address",
          "name": "owner",
          "type": "address"
        },
        {
          "indexed": true,
          "internalType": "uint256",
          "name": "transactionId",
          "type": "uint256"
        },
        {
          "indexed": true,
          "internalType": "address",
          "name": "transactionTo",
          "type": "address"
        },
        {
          "indexed": false,
          "internalType": "uint256",
          "name": "value",
          "type": "uint256"
        },
        {
          "indexed": false,
          "internalType": "bytes",
          "name": "data",
          "type": "bytes"
        }
      ],
      "name": "SubmitTransaction",
      "type": "event"
    },
    {
      "inputs": [
        {
          "internalType": "address",
          "name": "owner",
          "type": "address"
        }
      ],
      "name": "addOwner",
      "outputs": [],
      "stateMutability": "nonpayable",
      "type": "function"
    },
    {
      "inputs": [],
      "name": "admin",
      "outputs": [
        {
          "internalType": "address",
          "name": "",
          "type": "address"
        }
      ],
      "stateMutability": "view",
      "type": "function"
    },
    {
      "inputs": [
        {
          "internalType": "uint256",
          "name": "",
          "type": "uint256"
        },
        {
          "internalType": "address",
          "name": "",
          "type": "address"
        }
      ],
      "name": "isConfirmed",
      "outputs": [
        {
          "internalType": "bool",
          "name": "",
          "type": "bool"
        }
      ],
      "stateMutability": "view",
      "type": "function"
    },
    {
      "inputs": [
        {
          "internalType": "address",
          "name": "",
          "type": "address"
        }
      ],
      "name": "isOwner",
      "outputs": [
        {
          "internalType": "bool",
          "name": "",
          "type": "bool"
        }
      ],
      "stateMutability": "view",
      "type": "function"
    },
    {
      "inputs": [],
      "name": "numConfirmationRequired",
      "outputs": [
        {
          "internalType": "uint256",
          "name": "",
          "type": "uint256"
        }
      ],
      "stateMutability": "view",
      "type": "function"
    },
    {
      "inputs": [
        {
          "internalType": "uint256",
          "name": "",
          "type": "uint256"
        }
      ],
      "name": "owners",
      "outputs": [
        {
          "internalType": "address",
          "name": "",
          "type": "address"
        }
      ],
      "stateMutability": "view",
      "type": "function"
    },
    {
      "inputs": [
        {
          "internalType": "address",
          "name": "owner",
          "type": "address"
        }
      ],
      "name": "removeOwner",
      "outputs": [],
      "stateMutability": "nonpayable",
      "type": "function"
    },
    {
      "inputs": [
        {
          "internalType": "address",
          "name": "newAdmin",
          "type": "address"
        }
      ],
      "name": "renounceAdmin",
      "outputs": [],
      "stateMutability": "nonpayable",
      "type": "function"
    },
    {
      "inputs": [
        {
          "internalType": "uint256",
          "name": "",
          "type": "uint256"
        }
      ],
      "name": "transactions",
      "outputs": [
        {
          "internalType": "address payable",
          "name": "to",
          "type": "address"
        },
        {
          "internalType": "uint256",
          "name": "value",
          "type": "uint256"
        },
        {
          "internalType": "bytes",
          "name": "data",
          "type": "bytes"
        },
        {
          "internalType": "bool",
          "name": "executed",
          "type": "bool"
        },
        {
          "internalType": "uint256",
          "name": "numConfirmations",
          "type": "uint256"
        }
      ],
      "stateMutability": "view",
      "type": "function"
    },
    {
      "inputs": [
        {
          "internalType": "address",
          "name": "_from",
          "type": "address"
        },
        {
          "internalType": "address",
          "name": "_to",
          "type": "address"
        }
      ],
      "name": "transferOwner",
      "outputs": [],
      "stateMutability": "nonpayable",
      "type": "function"
    },
    {
      "stateMutability": "payable",
      "type": "receive"
    },
    {
      "inputs": [
        {
          "internalType": "address payable",
          "name": "_to",
          "type": "address"
        },
        {
          "internalType": "uint256",
          "name": "_value",
          "type": "uint256"
        },
        {
          "internalType": "bytes",
          "name": "_data",
          "type": "bytes"
        }
      ],
      "name": "submitTransaction",
      "outputs": [],
      "stateMutability": "nonpayable",
      "type": "function"
    },
    {
      "inputs": [
        {
          "internalType": "uint256",
          "name": "_txIndex",
          "type": "uint256"
        }
      ],
      "name": "confirmationTransaction",
      "outputs": [],
      "stateMutability": "nonpayable",
      "type": "function"
    },
    {
      "inputs": [
        {
          "internalType": "uint256",
          "name": "_txIndex",
          "type": "uint256"
        },
        {
          "internalType": "address payable",
          "name": "_to",
          "type": "address"
        }
      ],
      "name": "executeTransaction",
      "outputs": [],
      "stateMutability": "payable",
      "type": "function"
    },
    {
      "inputs": [
        {
          "internalType": "uint256",
          "name": "_txIndex",
          "type": "uint256"
        }
      ],
      "name": "removeConfirmation",
      "outputs": [],
      "stateMutability": "nonpayable",
      "type": "function"
    },
    {
      "inputs": [],
      "name": "getOwners",
      "outputs": [
        {
          "internalType": "address[]",
          "name": "",
          "type": "address[]"
        }
      ],
      "stateMutability": "view",
      "type": "function"
    },
    {
      "inputs": [],
      "name": "getTransactionsCount",
      "outputs": [
        {
          "internalType": "uint256",
          "name": "",
          "type": "uint256"
        }
      ],
      "stateMutability": "view",
      "type": "function"
    },
    {
      "inputs": [
        {
          "internalType": "uint256",
          "name": "_txIndex",
          "type": "uint256"
        }
      ],
      "name": "getTransaction",
      "outputs": [
        {
          "internalType": "address",
          "name": "to",
          "type": "address"
        },
        {
          "internalType": "uint256",
          "name": "value",
          "type": "uint256"
        },
        {
          "internalType": "bytes",
          "name": "data",
          "type": "bytes"
        },
        {
          "internalType": "bool",
          "name": "executed",
          "type": "bool"
        },
        {
          "internalType": "uint256",
          "name": "numConfirmations",
          "type": "uint256"
        }
      ],
      "stateMutability": "view",
      "type": "function"
    }
  ],
  "bytecode": "0x60806040523480156200001157600080fd5b5060405162003be938038062003be9833981810160405281019062000037919062000768565b81336000806101000a81548173ffffffffffffffffffffffffffffffffffffffff021916908373ffffffffffffffffffffffffffffffffffffffff160217905550600381511015620000c0576040517f08c379a0000000000000000000000000000000000000000000000000000000008152600401620000b79062000855565b60405180910390fd5b60005b81518110156200015857600160026000848481518110620000e957620000e862000877565b5b602002602001015173ffffffffffffffffffffffffffffffffffffffff1673ffffffffffffffffffffffffffffffffffffffff16815260200190815260200160002060006101000a81548160ff02191690831515021790555080806200014f90620008d5565b915050620000c3565b5080600190805190602001906200017192919062000491565b50600062000191600180549050603c6200046160201b62001f051760201c565b9050620001ab8160646200047960201b62001f1b1760201c565b60038190555050506000825111620001fa576040517f08c379a0000000000000000000000000000000000000000000000000000000008152600401620001f19062000972565b60405180910390fd5b6000811180156200020c575081518111155b6200024e576040517f08c379a0000000000000000000000000000000000000000000000000000000008152600401620002459062000a0a565b60405180910390fd5b60005b82518110156200045157600083828151811062000273576200027262000877565b5b60200260200101519050600073ffffffffffffffffffffffffffffffffffffffff168173ffffffffffffffffffffffffffffffffffffffff1603620002ef576040517f08c379a0000000000000000000000000000000000000000000000000000000008152600401620002e69062000a7c565b60405180910390fd5b600260008273ffffffffffffffffffffffffffffffffffffffff1673ffffffffffffffffffffffffffffffffffffffff16815260200190815260200160002060009054906101000a900460ff16156200037f576040517f08c379a0000000000000000000000000000000000000000000000000000000008152600401620003769062000aee565b60405180910390fd5b6001600260008373ffffffffffffffffffffffffffffffffffffffff1673ffffffffffffffffffffffffffffffffffffffff16815260200190815260200160002060006101000a81548160ff0219169083151502179055506001819080600181540180825580915050600190039060005260206000200160009091909190916101000a81548173ffffffffffffffffffffffffffffffffffffffff021916908373ffffffffffffffffffffffffffffffffffffffff1602179055505080806200044890620008d5565b91505062000251565b5080600481905550505062000bc2565b6000818362000471919062000b10565b905092915050565b6000818362000489919062000b8a565b905092915050565b8280548282559060005260206000209081019282156200050d579160200282015b828111156200050c5782518260006101000a81548173ffffffffffffffffffffffffffffffffffffffff021916908373ffffffffffffffffffffffffffffffffffffffff16021790555091602001919060010190620004b2565b5b5090506200051c919062000520565b5090565b5b808211156200053b57600081600090555060010162000521565b5090565b6000604051905090565b600080fd5b600080fd5b600080fd5b6000601f19601f8301169050919050565b7f4e487b7100000000000000000000000000000000000000000000000000000000600052604160045260246000fd5b620005a38262000558565b810181811067ffffffffffffffff82111715620005c557620005c462000569565b5b80604052505050565b6000620005da6200053f565b9050620005e8828262000598565b919050565b600067ffffffffffffffff8211156200060b576200060a62000569565b5b602082029050602081019050919050565b600080fd5b600073ffffffffffffffffffffffffffffffffffffffff82169050919050565b60006200064e8262000621565b9050919050565b620006608162000641565b81146200066c57600080fd5b50565b600081519050620006808162000655565b92915050565b60006200069d6200069784620005ed565b620005ce565b90508083825260208201905060208402830185811115620006c357620006c26200061c565b5b835b81811015620006f05780620006db88826200066f565b845260208401935050602081019050620006c5565b5050509392505050565b600082601f83011262000712576200071162000553565b5b81516200072484826020860162000686565b91505092915050565b6000819050919050565b62000742816200072d565b81146200074e57600080fd5b50565b600081519050620007628162000737565b92915050565b6000806040838503121562000782576200078162000549565b5b600083015167ffffffffffffffff811115620007a357620007a26200054e565b5b620007b185828601620006fa565b9250506020620007c48582860162000751565b9150509250929050565b600082825260208201905092915050565b7f5468657265206e65656420746f2062652061746c65617374203320696e69746960008201527f616c207369676e61746f7269657320666f7220746869732077616c6c65740000602082015250565b60006200083d603e83620007ce565b91506200084a82620007df565b604082019050919050565b6000602082019050818103600083015262000870816200082e565b9050919050565b7f4e487b7100000000000000000000000000000000000000000000000000000000600052603260045260246000fd5b7f4e487b7100000000000000000000000000000000000000000000000000000000600052601160045260246000fd5b6000620008e2826200072d565b91507fffffffffffffffffffffffffffffffffffffffffffffffffffffffffffffffff8203620009175762000916620008a6565b5b600182019050919050565b7f4f776e6572732072657175697265640000000000000000000000000000000000600082015250565b60006200095a600f83620007ce565b9150620009678262000922565b602082019050919050565b600060208201905081810360008301526200098d816200094b565b9050919050565b7f496e76616c6964206e756d626572206f6620726571756972656420636f6e666960008201527f726d6174696f6e00000000000000000000000000000000000000000000000000602082015250565b6000620009f2602783620007ce565b9150620009ff8262000994565b604082019050919050565b6000602082019050818103600083015262000a2581620009e3565b9050919050565b7f496e76616c6964206f776e657200000000000000000000000000000000000000600082015250565b600062000a64600d83620007ce565b915062000a718262000a2c565b602082019050919050565b6000602082019050818103600083015262000a978162000a55565b9050919050565b7f4f776e6572206e6f7420756e6971756500000000000000000000000000000000600082015250565b600062000ad6601083620007ce565b915062000ae38262000a9e565b602082019050919050565b6000602082019050818103600083015262000b098162000ac7565b9050919050565b600062000b1d826200072d565b915062000b2a836200072d565b925082820262000b3a816200072d565b9150828204841483151762000b545762000b53620008a6565b5b5092915050565b7f4e487b7100000000000000000000000000000000000000000000000000000000600052601260045260246000fd5b600062000b97826200072d565b915062000ba4836200072d565b92508262000bb75762000bb662000b5b565b5b828204905092915050565b6130178062000bd26000396000f3fe6080604052600436106101025760003560e01c806361b18b9f116100955780639b6a34d3116100645780639b6a34d3146103ab578063a0e67e2b146103d6578063c642747414610401578063e3782c141461042a578063f851a4401461045357610159565b806361b18b9f146102db5780637065cb481461030457806380f59a651461032d5780639ace38c21461036a57610159565b806331678cf6116100d157806331678cf61461021d57806333ea3dc814610246578063578cb8f9146102875780635e1fab0f146102b257610159565b8063025e7c271461015e578063173825d91461019b57806329ba8780146101c45780632f54bf6e146101e057610159565b36610159573373ffffffffffffffffffffffffffffffffffffffff167f1ac1d796426d122cc937df3056b76b5dfff699fe53fc92a80b71da309ca5a110344760405161014f929190611fa8565b60405180910390a2005b600080fd5b34801561016a57600080fd5b5061018560048036038101906101809190612011565b61047e565b604051610192919061207f565b60405180910390f35b3480156101a757600080fd5b506101c260048036038101906101bd91906120c6565b6104bd565b005b6101de60048036038101906101d99190612131565b6108d1565b005b3480156101ec57600080fd5b50610207600480360381019061020291906120c6565b610b26565b604051610214919061218c565b60405180910390f35b34801561022957600080fd5b50610244600480360381019061023f91906121a7565b610b46565b005b34801561025257600080fd5b5061026d60048036038101906102689190612011565b611011565b60405161027e959493929190612277565b60405180910390f35b34801561029357600080fd5b5061029c611124565b6040516102a991906122d1565b60405180910390f35b3480156102be57600080fd5b506102d960048036038101906102d491906120c6565b611131565b005b3480156102e757600080fd5b5061030260048036038101906102fd9190612011565b611245565b005b34801561031057600080fd5b5061032b600480360381019061032691906120c6565b611522565b005b34801561033957600080fd5b50610354600480360381019061034f91906122ec565b611846565b604051610361919061218c565b60405180910390f35b34801561037657600080fd5b50610391600480360381019061038c9190612011565b611875565b6040516103a295949392919061233b565b60405180910390f35b3480156103b757600080fd5b506103c0611970565b6040516103cd91906122d1565b60405180910390f35b3480156103e257600080fd5b506103eb611976565b6040516103f89190612453565b60405180910390f35b34801561040d57600080fd5b50610428600480360381019061042391906125aa565b611a04565b005b34801561043657600080fd5b50610451600480360381019061044c9190612011565b611c07565b005b34801561045f57600080fd5b50610468611ee1565b604051610475919061207f565b60405180910390f35b6001818154811061048e57600080fd5b906000526020600020016000915054906101000a900473ffffffffffffffffffffffffffffffffffffffff1681565b60008054906101000a900473ffffffffffffffffffffffffffffffffffffffff1673ffffffffffffffffffffffffffffffffffffffff163373ffffffffffffffffffffffffffffffffffffffff161461054b576040517f08c379a000000000000000000000000000000000000000000000000000000000815260040161054290612676565b60405180910390fd5b80600073ffffffffffffffffffffffffffffffffffffffff168173ffffffffffffffffffffffffffffffffffffffff16036105bb576040517f08c379a00000000000000000000000000000000000000000000000000000000081526004016105b290612708565b60405180910390fd5b8160011515600260008373ffffffffffffffffffffffffffffffffffffffff1673ffffffffffffffffffffffffffffffffffffffff16815260200190815260200160002060009054906101000a900460ff1615151461064f576040517f08c379a000000000000000000000000000000000000000000000000000000000815260040161064690612774565b60405180910390fd5b6000600260008573ffffffffffffffffffffffffffffffffffffffff1673ffffffffffffffffffffffffffffffffffffffff16815260200190815260200160002060006101000a81548160ff02191690831515021790555060005b600180805490506106bb91906127c3565b8110156107f5578373ffffffffffffffffffffffffffffffffffffffff16600182815481106106ed576106ec6127f7565b5b9060005260206000200160009054906101000a900473ffffffffffffffffffffffffffffffffffffffff1673ffffffffffffffffffffffffffffffffffffffff16036107e257600180808054905061074591906127c3565b81548110610756576107556127f7565b5b9060005260206000200160009054906101000a900473ffffffffffffffffffffffffffffffffffffffff1660018281548110610795576107946127f7565b5b9060005260206000200160006101000a81548173ffffffffffffffffffffffffffffffffffffffff021916908373ffffffffffffffffffffffffffffffffffffffff1602179055506107f5565b80806107ed90612826565b9150506106aa565b5060018054806108085761080761286e565b5b6001900381819060005260206000200160006101000a81549073ffffffffffffffffffffffffffffffffffffffff021916905590556108cc60018054806020026020016040519081016040528092919081815260200182805480156108c257602002820191906000526020600020905b8160009054906101000a900473ffffffffffffffffffffffffffffffffffffffff1673ffffffffffffffffffffffffffffffffffffffff1681526020019060010190808311610878575b5050505050611f31565b505050565b600260003373ffffffffffffffffffffffffffffffffffffffff1673ffffffffffffffffffffffffffffffffffffffff16815260200190815260200160002060009054906101000a900460ff1661095d576040517f08c379a0000000000000000000000000000000000000000000000000000000008152600401610954906128e9565b60405180910390fd5b8160068054905081106109a5576040517f08c379a000000000000000000000000000000000000000000000000000000000815260040161099c90612955565b60405180910390fd5b82600681815481106109ba576109b96127f7565b5b906000526020600020906005020160030160009054906101000a900460ff1615610a19576040517f08c379a0000000000000000000000000000000000000000000000000000000008152600401610a10906129c1565b60405180910390fd5b600060068581548110610a2f57610a2e6127f7565b5b9060005260206000209060050201905060045481600401541015610a88576040517f08c379a0000000000000000000000000000000000000000000000000000000008152600401610a7f90612a2d565b60405180910390fd5b60008473ffffffffffffffffffffffffffffffffffffffff166108fc349081150290604051600060405180830381858888f19350505050905080610b01576040517f08c379a0000000000000000000000000000000000000000000000000000000008152600401610af890612a99565b60405180910390fd5b60018260030160006101000a81548160ff021916908315150217905550505050505050565b60026020528060005260406000206000915054906101000a900460ff1681565b60008054906101000a900473ffffffffffffffffffffffffffffffffffffffff1673ffffffffffffffffffffffffffffffffffffffff163373ffffffffffffffffffffffffffffffffffffffff1614610bd4576040517f08c379a0000000000000000000000000000000000000000000000000000000008152600401610bcb90612676565b60405180910390fd5b81600073ffffffffffffffffffffffffffffffffffffffff168173ffffffffffffffffffffffffffffffffffffffff1603610c44576040517f08c379a0000000000000000000000000000000000000000000000000000000008152600401610c3b90612708565b60405180910390fd5b81600073ffffffffffffffffffffffffffffffffffffffff168173ffffffffffffffffffffffffffffffffffffffff1603610cb4576040517f08c379a0000000000000000000000000000000000000000000000000000000008152600401610cab90612708565b60405180910390fd5b8360011515600260008373ffffffffffffffffffffffffffffffffffffffff1673ffffffffffffffffffffffffffffffffffffffff16815260200190815260200160002060009054906101000a900460ff16151514610d48576040517f08c379a0000000000000000000000000000000000000000000000000000000008152600401610d3f90612774565b60405180910390fd5b8360001515600260008373ffffffffffffffffffffffffffffffffffffffff1673ffffffffffffffffffffffffffffffffffffffff16815260200190815260200160002060009054906101000a900460ff16151514610ddc576040517f08c379a0000000000000000000000000000000000000000000000000000000008152600401610dd390612b05565b60405180910390fd5b60005b600180549050811015610ed2578673ffffffffffffffffffffffffffffffffffffffff1660018281548110610e1757610e166127f7565b5b9060005260206000200160009054906101000a900473ffffffffffffffffffffffffffffffffffffffff1673ffffffffffffffffffffffffffffffffffffffff1603610ebf578560018281548110610e7257610e716127f7565b5b9060005260206000200160006101000a81548173ffffffffffffffffffffffffffffffffffffffff021916908373ffffffffffffffffffffffffffffffffffffffff160217905550610ed2565b8080610eca90612826565b915050610ddf565b506000600260008873ffffffffffffffffffffffffffffffffffffffff1673ffffffffffffffffffffffffffffffffffffffff16815260200190815260200160002060006101000a81548160ff0219169083151502179055506001600260008773ffffffffffffffffffffffffffffffffffffffff1673ffffffffffffffffffffffffffffffffffffffff16815260200190815260200160002060006101000a81548160ff0219169083151502179055508573ffffffffffffffffffffffffffffffffffffffff167f8001553a916ef2f495d26a907cc54d96ed840d7bda71e73194bf5a9df7a76b9060405160405180910390a28473ffffffffffffffffffffffffffffffffffffffff167ff39e6e1eb0edcf53c221607b54b00cd28f3196fed0a24994dc308b8f611b682d60405160405180910390a2505050505050565b600080606060008060006006878154811061102f5761102e6127f7565b5b906000526020600020906005020190508060000160009054906101000a900473ffffffffffffffffffffffffffffffffffffffff168160010154826002018360030160009054906101000a900460ff16846004015482805461109090612b54565b80601f01602080910402602001604051908101604052809291908181526020018280546110bc90612b54565b80156111095780601f106110de57610100808354040283529160200191611109565b820191906000526020600020905b8154815290600101906020018083116110ec57829003601f168201915b50505050509250955095509550955095505091939590929450565b6000600680549050905090565b60008054906101000a900473ffffffffffffffffffffffffffffffffffffffff1673ffffffffffffffffffffffffffffffffffffffff163373ffffffffffffffffffffffffffffffffffffffff16146111bf576040517f08c379a00000000000000000000000000000000000000000000000000000000081526004016111b690612676565b60405180910390fd5b806000806101000a81548173ffffffffffffffffffffffffffffffffffffffff021916908373ffffffffffffffffffffffffffffffffffffffff1602179055508073ffffffffffffffffffffffffffffffffffffffff167f1d751f0bc5c9e1dd4d5952599ce7bb9ef42169fb73003fc75d9e6a26d135136c60405160405180910390a250565b600260003373ffffffffffffffffffffffffffffffffffffffff1673ffffffffffffffffffffffffffffffffffffffff16815260200190815260200160002060009054906101000a900460ff166112d1576040517f08c379a00000000000000000000000000000000000000000000000000000000081526004016112c8906128e9565b60405180910390fd5b806006805490508110611319576040517f08c379a000000000000000000000000000000000000000000000000000000000815260040161131090612955565b60405180910390fd5b816006818154811061132e5761132d6127f7565b5b906000526020600020906005020160030160009054906101000a900460ff161561138d576040517f08c379a0000000000000000000000000000000000000000000000000000000008152600401611384906129c1565b60405180910390fd5b826005600082815260200190815260200160002060003373ffffffffffffffffffffffffffffffffffffffff1673ffffffffffffffffffffffffffffffffffffffff16815260200190815260200160002060009054906101000a900460ff161561142c576040517f08c379a000000000000000000000000000000000000000000000000000000000815260040161142390612bd1565b60405180910390fd5b600060068581548110611442576114416127f7565b5b9060005260206000209060050201905060018160040160008282546114679190612bf1565b9250508190555060016005600087815260200190815260200160002060003373ffffffffffffffffffffffffffffffffffffffff1673ffffffffffffffffffffffffffffffffffffffff16815260200190815260200160002060006101000a81548160ff021916908315150217905550843373ffffffffffffffffffffffffffffffffffffffff167f84127bf8c5748be76c6a9014354ddf1d1620ac83cd2f934a2ea0a7ec38ac5f4760405160405180910390a35050505050565b60008054906101000a900473ffffffffffffffffffffffffffffffffffffffff1673ffffffffffffffffffffffffffffffffffffffff163373ffffffffffffffffffffffffffffffffffffffff16146115b0576040517f08c379a00000000000000000000000000000000000000000000000000000000081526004016115a790612676565b60405180910390fd5b80600073ffffffffffffffffffffffffffffffffffffffff168173ffffffffffffffffffffffffffffffffffffffff1603611620576040517f08c379a000000000000000000000000000000000000000000000000000000000815260040161161790612708565b60405180910390fd5b8160001515600260008373ffffffffffffffffffffffffffffffffffffffff1673ffffffffffffffffffffffffffffffffffffffff16815260200190815260200160002060009054906101000a900460ff161515146116b4576040517f08c379a00000000000000000000000000000000000000000000000000000000081526004016116ab90612b05565b60405180910390fd5b6001600260008573ffffffffffffffffffffffffffffffffffffffff1673ffffffffffffffffffffffffffffffffffffffff16815260200190815260200160002060006101000a81548160ff0219169083151502179055506001839080600181540180825580915050600190039060005260206000200160009091909190916101000a81548173ffffffffffffffffffffffffffffffffffffffff021916908373ffffffffffffffffffffffffffffffffffffffff1602179055508273ffffffffffffffffffffffffffffffffffffffff167ff39e6e1eb0edcf53c221607b54b00cd28f3196fed0a24994dc308b8f611b682d60405160405180910390a2611841600180548060200260200160405190810160405280929190818152602001828054801561183757602002820191906000526020600020905b8160009054906101000a900473ffffffffffffffffffffffffffffffffffffffff1673ffffffffffffffffffffffffffffffffffffffff16815260200190600101908083116117ed575b5050505050611f31565b505050565b60056020528160005260406000206020528060005260406000206000915091509054906101000a900460ff1681565b6006818154811061188557600080fd5b90600052602060002090600502016000915090508060000160009054906101000a900473ffffffffffffffffffffffffffffffffffffffff16908060010154908060020180546118d490612b54565b80601f016020809104026020016040519081016040528092919081815260200182805461190090612b54565b801561194d5780601f106119225761010080835404028352916020019161194d565b820191906000526020600020905b81548152906001019060200180831161193057829003601f168201915b5050505050908060030160009054906101000a900460ff16908060040154905085565b60045481565b606060018054806020026020016040519081016040528092919081815260200182805480156119fa57602002820191906000526020600020905b8160009054906101000a900473ffffffffffffffffffffffffffffffffffffffff1673ffffffffffffffffffffffffffffffffffffffff16815260200190600101908083116119b0575b5050505050905090565b600260003373ffffffffffffffffffffffffffffffffffffffff1673ffffffffffffffffffffffffffffffffffffffff16815260200190815260200160002060009054906101000a900460ff16611a90576040517f08c379a0000000000000000000000000000000000000000000000000000000008152600401611a87906128e9565b60405180910390fd5b6000600680549050905060066040518060a001604052808673ffffffffffffffffffffffffffffffffffffffff1681526020018581526020018481526020016000151581526020016000815250908060018154018082558091505060019003906000526020600020906005020160009091909190915060008201518160000160006101000a81548173ffffffffffffffffffffffffffffffffffffffff021916908373ffffffffffffffffffffffffffffffffffffffff160217905550602082015181600101556040820151816002019081611b6c9190612dd1565b5060608201518160030160006101000a81548160ff0219169083151502179055506080820151816004015550508373ffffffffffffffffffffffffffffffffffffffff16813373ffffffffffffffffffffffffffffffffffffffff167fd5a05bf70715ad82a09a756320284a1b54c9ff74cd0f8cce6219e79b563fe59d8686604051611bf9929190612ea3565b60405180910390a450505050565b600260003373ffffffffffffffffffffffffffffffffffffffff1673ffffffffffffffffffffffffffffffffffffffff16815260200190815260200160002060009054906101000a900460ff16611c93576040517f08c379a0000000000000000000000000000000000000000000000000000000008152600401611c8a906128e9565b60405180910390fd5b806006805490508110611cdb576040517f08c379a0000000000000000000000000000000000000000000000000000000008152600401611cd290612955565b60405180910390fd5b8160068181548110611cf057611cef6127f7565b5b906000526020600020906005020160030160009054906101000a900460ff1615611d4f576040517f08c379a0000000000000000000000000000000000000000000000000000000008152600401611d46906129c1565b60405180910390fd5b600060068481548110611d6557611d646127f7565b5b906000526020600020906005020190506005600085815260200190815260200160002060003373ffffffffffffffffffffffffffffffffffffffff1673ffffffffffffffffffffffffffffffffffffffff16815260200190815260200160002060009054906101000a900460ff16611e12576040517f08c379a0000000000000000000000000000000000000000000000000000000008152600401611e0990612f1f565b60405180910390fd5b6001816004016000828254611e2791906127c3565b9250508190555060006005600086815260200190815260200160002060003373ffffffffffffffffffffffffffffffffffffffff1673ffffffffffffffffffffffffffffffffffffffff16815260200190815260200160002060006101000a81548160ff021916908315150217905550833373ffffffffffffffffffffffffffffffffffffffff167ff0dca620e2e81f7841d07bcc105e1704fb01475b278a9d4c236e1c62945edd5560405160405180910390a350505050565b60008054906101000a900473ffffffffffffffffffffffffffffffffffffffff1681565b60008183611f139190612f3f565b905092915050565b60008183611f299190612fb0565b905092915050565b6000611f3f8251603c611f05565b9050611f4c816064611f1b565b6003819055507f672e46ac0e6acc1662bb680b70032b6d2669924997353a59f789f7be780f8d3e600354604051611f8391906122d1565b60405180910390a15050565b6000819050919050565b611fa281611f8f565b82525050565b6000604082019050611fbd6000830185611f99565b611fca6020830184611f99565b9392505050565b6000604051905090565b600080fd5b600080fd5b611fee81611f8f565b8114611ff957600080fd5b50565b60008135905061200b81611fe5565b92915050565b60006020828403121561202757612026611fdb565b5b600061203584828501611ffc565b91505092915050565b600073ffffffffffffffffffffffffffffffffffffffff82169050919050565b60006120698261203e565b9050919050565b6120798161205e565b82525050565b60006020820190506120946000830184612070565b92915050565b6120a38161205e565b81146120ae57600080fd5b50565b6000813590506120c08161209a565b92915050565b6000602082840312156120dc576120db611fdb565b5b60006120ea848285016120b1565b91505092915050565b60006120fe8261203e565b9050919050565b61210e816120f3565b811461211957600080fd5b50565b60008135905061212b81612105565b92915050565b6000806040838503121561214857612147611fdb565b5b600061215685828601611ffc565b92505060206121678582860161211c565b9150509250929050565b60008115159050919050565b61218681612171565b82525050565b60006020820190506121a1600083018461217d565b92915050565b600080604083850312156121be576121bd611fdb565b5b60006121cc858286016120b1565b92505060206121dd858286016120b1565b9150509250929050565b600081519050919050565b600082825260208201905092915050565b60005b83811015612221578082015181840152602081019050612206565b60008484015250505050565b6000601f19601f8301169050919050565b6000612249826121e7565b61225381856121f2565b9350612263818560208601612203565b61226c8161222d565b840191505092915050565b600060a08201905061228c6000830188612070565b6122996020830187611f99565b81810360408301526122ab818661223e565b90506122ba606083018561217d565b6122c76080830184611f99565b9695505050505050565b60006020820190506122e66000830184611f99565b92915050565b6000806040838503121561230357612302611fdb565b5b600061231185828601611ffc565b9250506020612322858286016120b1565b9150509250929050565b612335816120f3565b82525050565b600060a082019050612350600083018861232c565b61235d6020830187611f99565b818103604083015261236f818661223e565b905061237e606083018561217d565b61238b6080830184611f99565b9695505050505050565b600081519050919050565b600082825260208201905092915050565b6000819050602082019050919050565b6123ca8161205e565b82525050565b60006123dc83836123c1565b60208301905092915050565b6000602082019050919050565b600061240082612395565b61240a81856123a0565b9350612415836123b1565b8060005b8381101561244657815161242d88826123d0565b9750612438836123e8565b925050600181019050612419565b5085935050505092915050565b6000602082019050818103600083015261246d81846123f5565b905092915050565b600080fd5b600080fd5b7f4e487b7100000000000000000000000000000000000000000000000000000000600052604160045260246000fd5b6124b78261222d565b810181811067ffffffffffffffff821117156124d6576124d561247f565b5b80604052505050565b60006124e9611fd1565b90506124f582826124ae565b919050565b600067ffffffffffffffff8211156125155761251461247f565b5b61251e8261222d565b9050602081019050919050565b82818337600083830152505050565b600061254d612548846124fa565b6124df565b9050828152602081018484840111156125695761256861247a565b5b61257484828561252b565b509392505050565b600082601f83011261259157612590612475565b5b81356125a184826020860161253a565b91505092915050565b6000806000606084860312156125c3576125c2611fdb565b5b60006125d18682870161211c565b93505060206125e286828701611ffc565b925050604084013567ffffffffffffffff81111561260357612602611fe0565b5b61260f8682870161257c565b9150509250925092565b600082825260208201905092915050565b7f4f6e6c792061646d696e2063616e206163636573730000000000000000000000600082015250565b6000612660601583612619565b915061266b8261262a565b602082019050919050565b6000602082019050818103600083015261268f81612653565b9050919050565b7f5370656369666965642064657374696e6174696f6e20646f65736e277420657860008201527f6973740000000000000000000000000000000000000000000000000000000000602082015250565b60006126f2602383612619565b91506126fd82612696565b604082019050919050565b60006020820190508181036000830152612721816126e5565b9050919050565b7f54686973206f776e657220646f65736e27742065786973740000000000000000600082015250565b600061275e601883612619565b915061276982612728565b602082019050919050565b6000602082019050818103600083015261278d81612751565b9050919050565b7f4e487b7100000000000000000000000000000000000000000000000000000000600052601160045260246000fd5b60006127ce82611f8f565b91506127d983611f8f565b92508282039050818111156127f1576127f0612794565b5b92915050565b7f4e487b7100000000000000000000000000000000000000000000000000000000600052603260045260246000fd5b600061283182611f8f565b91507fffffffffffffffffffffffffffffffffffffffffffffffffffffffffffffffff820361286357612862612794565b5b600182019050919050565b7f4e487b7100000000000000000000000000000000000000000000000000000000600052603160045260246000fd5b7f4f6e6c79206f776e657220616c6c6f7765640000000000000000000000000000600082015250565b60006128d3601283612619565b91506128de8261289d565b602082019050919050565b60006020820190508181036000830152612902816128c6565b9050919050565b7f5472616e73616374696f6e20646f6573206e6f74206578697374000000000000600082015250565b600061293f601a83612619565b915061294a82612909565b602082019050919050565b6000602082019050818103600083015261296e81612932565b9050919050565b7f5472616e73616374696f6e20616c726561647920657865637574656400000000600082015250565b60006129ab601c83612619565b91506129b682612975565b602082019050919050565b600060208201905081810360008301526129da8161299e565b9050919050565b7f43616e6e6f7420657865637574652074686973207472616e73616374696f6e00600082015250565b6000612a17601f83612619565b9150612a22826129e1565b602082019050919050565b60006020820190508181036000830152612a4681612a0a565b9050919050565b7f4661696c656420746f2073656e64204574686572000000000000000000000000600082015250565b6000612a83601483612619565b9150612a8e82612a4d565b602082019050919050565b60006020820190508181036000830152612ab281612a76565b9050919050565b7f54686973206f776e657220616c72656164792065786973747300000000000000600082015250565b6000612aef601983612619565b9150612afa82612ab9565b602082019050919050565b60006020820190508181036000830152612b1e81612ae2565b9050919050565b7f4e487b7100000000000000000000000000000000000000000000000000000000600052602260045260246000fd5b60006002820490506001821680612b6c57607f821691505b602082108103612b7f57612b7e612b25565b5b50919050565b7f7472616e73616374696f6e20616c726561647920636f6e6669726d6564000000600082015250565b6000612bbb601d83612619565b9150612bc682612b85565b602082019050919050565b60006020820190508181036000830152612bea81612bae565b9050919050565b6000612bfc82611f8f565b9150612c0783611f8f565b9250828201905080821115612c1f57612c1e612794565b5b92915050565b60008190508160005260206000209050919050565b60006020601f8301049050919050565b600082821b905092915050565b600060088302612c877fffffffffffffffffffffffffffffffffffffffffffffffffffffffffffffffff82612c4a565b612c918683612c4a565b95508019841693508086168417925050509392505050565b6000819050919050565b6000612cce612cc9612cc484611f8f565b612ca9565b611f8f565b9050919050565b6000819050919050565b612ce883612cb3565b612cfc612cf482612cd5565b848454612c57565b825550505050565b600090565b612d11612d04565b612d1c818484612cdf565b505050565b5b81811015612d4057612d35600082612d09565b600181019050612d22565b5050565b601f821115612d8557612d5681612c25565b612d5f84612c3a565b81016020851015612d6e578190505b612d82612d7a85612c3a565b830182612d21565b50505b505050565b600082821c905092915050565b6000612da860001984600802612d8a565b1980831691505092915050565b6000612dc18383612d97565b9150826002028217905092915050565b612dda826121e7565b67ffffffffffffffff811115612df357612df261247f565b5b612dfd8254612b54565b612e08828285612d44565b600060209050601f831160018114612e3b5760008415612e29578287015190505b612e338582612db5565b865550612e9b565b601f198416612e4986612c25565b60005b82811015612e7157848901518255600182019150602085019450602081019050612e4c565b86831015612e8e5784890151612e8a601f891682612d97565b8355505b6001600288020188555050505b505050505050565b6000604082019050612eb86000830185611f99565b8181036020830152612eca818461223e565b90509392505050565b7f5472616e73616374696f6e206e6f7420636f6e6669726d656400000000000000600082015250565b6000612f09601983612619565b9150612f1482612ed3565b602082019050919050565b60006020820190508181036000830152612f3881612efc565b9050919050565b6000612f4a82611f8f565b9150612f5583611f8f565b9250828202612f6381611f8f565b91508282048414831517612f7a57612f79612794565b5b5092915050565b7f4e487b7100000000000000000000000000000000000000000000000000000000600052601260045260246000fd5b6000612fbb82611f8f565b9150612fc683611f8f565b925082612fd657612fd5612f81565b5b82820490509291505056fea2646970667358221220f3007f7dbf3f337cdbd4a2932aeb8515547344cd8157aff6fc201f99c769e6fb64736f6c63430008110033",
  "immutableReferences": {},
  "source": "// Its not always favourable to give authority to a single account when money is involved.\r\n// If somebody will send the money to the contract, it wont go straight into it, it has to pass through several confirmations.\r\n\r\n// This contract will have capabilities of multi sig wallet and it extends other contract which is even capable of managing the owners of multi sig wallet\r\nimport \"./Access.sol\";\r\n//SPDX-License-Identifier: MIT\r\npragma solidity ^0.8.17;\r\n\r\ncontract Multisig is Access {\r\n    event Deposite(address indexed sender, uint256 amount, uint256 balance);\r\n    event SubmitTransaction(address indexed owner, uint256 indexed transactionId, address indexed transactionTo, uint256 value, bytes data); // using bytes intead of string saves gas\r\n    event ConfirmationTransaction(address indexed owner, uint256 indexed transactionId);\r\n    event RevokeConfirmation(address indexed owner, uint256 indexed transactionId);\r\n    event ExecuteTransaction(address indexed owner, uint256 indexed transactionId);\r\n\r\n    // address[] owners;\r\n    // mapping(address => bool) public isOwner;\r\n    uint256 public numConfirmationRequired;\r\n\r\n    struct Transaction{\r\n        address payable to;\r\n        uint256 value;\r\n        bytes data;\r\n        bool executed;\r\n        uint256 numConfirmations;\r\n    }\r\n    \r\n    mapping(uint256 => mapping(address => bool)) public isConfirmed;\r\n\r\n    Transaction[] public transactions;\r\n\r\n    // modifier prevents from reentrancy attack in smart contract\r\n     modifier onlyOwner(){\r\n        require(isOwner[msg.sender], \"Only owner allowed\");\r\n        _;\r\n     }\r\n     \r\n     modifier transactionExists(uint256 _transactionId){\r\n        require(_transactionId < transactions.length, \"Transaction does not exist\");\r\n        _;\r\n     }\r\n\r\n    modifier notExecuted(uint256 _transactionId){\r\n        require(!transactions[_transactionId].executed, \"Transaction already executed\");\r\n        _;\r\n    }\r\n\r\n    modifier notConfirmed(uint256 _transactionId){\r\n        require(!isConfirmed[_transactionId][msg.sender], \"transaction already confirmed\");\r\n        _;\r\n    }\r\n\r\n    constructor(address[] memory _owners, uint256 _numOfConfirmationRequired) Access(_owners){\r\n        require(_owners.length > 0, \"Owners required\");\r\n        require(_numOfConfirmationRequired > 0 && _numOfConfirmationRequired <= _owners.length, \"Invalid number of required confirmation\");\r\n\r\n        for (uint256 i = 0; i < _owners.length; i++) {\r\n            address owner = _owners[i];\r\n            require(owner != address(0), \"Invalid owner\");\r\n            require(!isOwner[owner], \"Owner not unique\");\r\n            isOwner[owner] = true;\r\n            owners.push(owner);\r\n        }\r\n\r\n        numConfirmationRequired = _numOfConfirmationRequired;\r\n\r\n    }\r\n\r\n    receive() external payable{\r\n        emit Deposite(msg.sender, msg.value, address(this).balance); \r\n    }\r\n\r\n    function submitTransaction(address payable _to, uint256 _value, bytes memory _data) public onlyOwner{\r\n        uint256 transactionId = transactions.length;\r\n        transactions.push(Transaction({\r\n            to: _to,\r\n            value: _value,\r\n            data: _data,\r\n            executed: false,\r\n            numConfirmations: 0\r\n        }));\r\n        emit SubmitTransaction(msg.sender, transactionId, _to, _value, _data);\r\n    }\r\n\r\n    function confirmationTransaction(uint256 _txIndex) public onlyOwner transactionExists(_txIndex) notExecuted(_txIndex) notConfirmed(_txIndex) {\r\n        Transaction storage transaction = transactions[_txIndex];\r\n        transaction.numConfirmations += 1;\r\n        isConfirmed[_txIndex][msg.sender] = true;\r\n\r\n        emit ConfirmationTransaction(msg.sender, _txIndex);\r\n    }\r\n\r\n    // function executeTransaction(uint256 _txIndex) public payable onlyOwner transactionExists(_txIndex) notExecuted(_txIndex) {\r\n        function executeTransaction(uint256 _txIndex, address payable _to) public payable onlyOwner transactionExists(_txIndex) notExecuted(_txIndex) {\r\n        Transaction storage transaction = transactions[_txIndex];\r\n        \r\n        require(transaction.numConfirmations >= numConfirmationRequired, \"Cannot execute this transaction\");\r\n        bool sent = _to.send(msg.value);\r\n        require(sent, \"Failed to send Ether\");\r\n\r\n        transaction.executed = true;\r\n        // (bool success,) = transaction.to.call{ value: transaction.value}(\r\n        //     transaction.data\r\n        //     // \"\"\r\n        // );\r\n        // require(success, \"Transaction failed\");\r\n        // emit ExecuteTransaction(msg.sender, _txIndex);\r\n    }\r\n\r\n    function removeConfirmation(uint256 _txIndex) public onlyOwner transactionExists(_txIndex) notExecuted(_txIndex) {\r\n        Transaction storage transaction = transactions[_txIndex];\r\n        require(isConfirmed[_txIndex][msg.sender], \"Transaction not confirmed\");\r\n        transaction.numConfirmations -= 1;\r\n        isConfirmed[_txIndex][msg.sender] = false;\r\n        emit RevokeConfirmation(msg.sender, _txIndex);\r\n    }\r\n\r\n    function getOwners() public view returns(address[] memory){\r\n        return owners;\r\n    }\r\n\r\n    function getTransactionsCount() public view returns(uint256){\r\n        return transactions.length;\r\n    }\r\n\r\n    function getTransaction(uint256 _txIndex) public view returns(\r\n        address to, uint value, bytes memory data, bool executed, uint256 numConfirmations\r\n    ) \r\n    {\r\n        Transaction storage transaction = transactions[_txIndex];\r\n        return(\r\n            transaction.to,\r\n            transaction.value,\r\n            transaction.data,\r\n            transaction.executed,\r\n            transaction.numConfirmations\r\n        );\r\n    }\r\n}",
  "sourcePath": "C:\\Users\\lenovo\\Desktop\\Multi sig wallet\\contracts\\Multisig.sol",
  "compiler": {
    "name": "solc",
    "version": "0.8.17+commit.8df45f5f.Emscripten.clang"
  },
  "schemaVersion": "3.4.10",
  "updatedAt": "2022-12-17T15:11:45.999Z",
  "devdoc": {
    "kind": "dev",
    "methods": {},
    "version": 1
  },
  "userdoc": {
    "kind": "user",
    "methods": {},
    "version": 1
  }
}